:020000040800F2
:100000001804002005010008A70200089F0200084C
:10001000A302000879010008CD08000800000000D4
:10002000000000000000000000000000DD050008E6
:100030007D01000800000000E504000855070008E5
:100040001F0100081F0100081F0100081F01000810
:100050001F0100081F0100081F0100081F01000800
:100060001F0100081F0100081F0100081F010008F0
:100070001F0100081F0100081F0100081F010008E0
:100080001F0100081F0100081F0100081F010008D0
:100090001F0100081F0100081F0100081F010008C0
:1000A0001F0100081F0100081F0100081F010008B0
:1000B0001F0100081F0100081F0100081F010008A0
:1000C0001F0100081F0100081F0100081F01000890
:1000D0001F0100081F0100081F0100081F01000880
:1000E0001F0100081F0100081F010008DFF810D0E1
:1000F00000F030F800480047750A0008AFF30080B0
:10010000180400200648804706480047FEE7FEE73F
:10011000FEE7FEE7FEE7FEE7FEE7FEE7FEE7FEE7B7
:1001200059070008ED00000830B50B4601460020D5
:100130002022012409E021FA02F59D4205D303FAA9
:1001400002F5491B04FA02F52844151EA2F101022A
:10015000F1DC30BD064C074D06E0E06840F00103DD
:1001600094E8070098471034AC42F6D3FFF7C2FF7B
:10017000980A0008B80A000800BFFEE770472DE99A
:10018000F04102460025002600200023002400271D
:1001900091F803C00CF00F0591F803C00CF0100C9F
:1001A000BCF1000F03D091F802C04CEA050591F8AC
:1001B00000C0BCF1000F31D0146800202BE04FF0DC
:1001C000010C0CFA00F3B1F800C00CEA03069E42E1
:1001D00020D183004FF00F0C0CFA03F7BC4305FA53
:1001E00003FC4CEA040491F803C0BCF1280F06D1CB
:1001F0004FF0010C0CFA00FCC2F814C00AE091F8B0
:1002000003C0BCF1480F05D14FF0010C0CFA00FC03
:10021000C2F810C0401C0828D1D31460B1F800C047
:10022000BCF1FF0F34DD546800202EE000F1080C13
:100230004FF0010808FA0CF3B1F800C00CEA03060D
:100240009E4221D183004FF00F0C0CFA03F7BC4300
:1002500005FA03FC4CEA040491F803C0BCF1280F32
:1002600005D100F1080C08FA0CF8C2F8148091F8D6
:1002700003C0BCF1480F07D100F1080C4FF0010892
:1002800008FA0CF8C2F81080401C0828CED354603D
:10029000BDE8F0810AB1016100E04161704700BF33
:1002A000FEE700BFFEE7704770B500240EE00021B6
:1002B000204600F0E6F8002504E0002000F002F9F6
:1002C000681CC5B2802DF8DB601CC4B2082CEEDBC4
:1002D00070BD000008B50121082000F005F91420C8
:1002E0008DF8030003208DF802004FF48070ADF804
:1002F000000069460A48FFF742FF4FF40070ADF86E
:10030000000069460648FFF73AFF0122110204483F
:10031000FFF7C0FF012251020148FFF7BBFF08BDF4
:10032000000C014070B50546002415E080202041F6
:1003300000EA05024FF400710E48FFF7ABFF0122FF
:1003400011020C48FFF7A6FF00224FF48071094804
:10035000FFF7A0FF601CC4B2082CE7DB01221102EA
:100360000448FFF797FF00224FF480710148FFF720
:1003700091FF70BD000C014010B5012251020A48E6
:10038000FFF788FF012211020748FFF783FF0022D1
:100390004FF400710448FFF77DFF00224FF4807195
:1003A0000148FFF777FF10BD000C014010B5002297
:1003B0004FF400710648FFF76DFF01221102044857
:1003C000FFF768FF012251020148FFF763FF10BDEC
:1003D000000C014070B5002406E0002500E06D1C13
:1003E000B5F57A7FFBD3641CB4F57A7FF5D3FFF7BC
:1003F00071FFAE2000F056F8D52000F053F88020B1
:1004000000F050F8A82000F04DF83F2000F04AF826
:10041000D32000F047F8002000F044F8402000F01E
:1004200041F8A12000F03EF8C82000F03BF8DA20A7
:1004300000F038F8122000F035F8812000F032F892
:10044000CF2000F02FF8D92000F02CF8F12000F098
:1004500029F8DB2000F026F8302000F023F8A42053
:1004600000F020F8A62000F01DF88D2000F01AF80A
:10047000142000F017F8AF2000F014F8FFF714FF75
:1004800070BD70B505460C4645F0B00000F00AF8A6
:10049000102141EA141000F005F804F00F0000F0FC
:1004A00001F870BD10B50446FFF766FF7820FFF72E
:1004B00039FF0020FFF736FF2046FFF733FFFFF735
:1004C00075FF10BD10B50446FFF756FF7820FFF703
:1004D00029FF4020FFF726FF2046FFF723FFFFF705
:1004E00065FF10BD7047000029B1064A92690243BA
:1004F000044B9A6104E0034A92698243014B9A617A
:10050000704700000010024030B500210022002496
:1005100000232D4D6D6805F00C0121B1042905D093
:10052000082923D105E0294D056022E0274D05600B
:100530001FE0254D6D6805F47012234D6D6805F4BC
:100540008034022505EB92421CB9214D55430560CC
:100550000BE01D4D6D6805F400351DB11C4D554374
:10056000056002E0194D5543056002E0174D056036
:1005700000BF00BF144D6D6805F0F0010909154D6D
:100580006B5C0568DD4045600F4D6D6805F4E0610A
:10059000090A104D6B5C4568DD4085600A4D6D6849
:1005A00005F46051C90A0B4D6B5C4568DD40C560C0
:1005B000054D6D6805F44041890B074D6B5CC568BE
:1005C000B5FBF3F5056130BD0010024000127A0062
:1005D00000093D00000000201000002070470000CE
:1005E00000B585B001218803FFF77EFF01210420BB
:1005F000FFF77AFF4FF40070ADF8100018208DF867
:10060000130003208DF8120004A90E48FFF7B7FD70
:100610004FF4165000900020ADF80C000820ADF803
:100620000A000020ADF80800ADF80600ADF804009F
:100630006946054800F0DAF80121034800F0BCF8EB
:1006400005B000BD000801400038014010B5044667
:100650002146054800F036F900BF8021024800F02D
:10066000B7F80028F9D010BD0038014010B500F0EF
:1006700001F810BD0CB500200190009033480068CF
:1006800040F480303149086000BF3048006800F411
:10069000003000900198401C0190009818B9019812
:1006A000B0F5A06FF1D12948006800F4003010B116
:1006B0000120009001E0002000900098012843D123
:1006C0002348006840F0100021490860084600688F
:1006D00020F0030008600846006840F0020008604F
:1006E0001A4840681949486008464068486008460A
:1006F000406840F4806048600846406820F47C1000
:1007000048600846406840F4E810486008460068C1
:1007100040F08070086000BF0C48006800F0007076
:100720000028F9D00948406820F0030007494860D4
:100730000846406840F00200486000BF0348406837
:1007400000F00C000828F9D10CBD00000010024098
:10075000002002407047000010B51348006840F0C8
:1007600001001149086008464068104908400E49D8
:100770004860084600680E4908400B490860084672
:10078000006820F4802008600846406820F4FE00DD
:1007900048604FF41F008860FFF768FF4FF000606B
:1007A0000449086010BD0000001002400000FFF87E
:1007B000FFFFF6FE08ED00E021B1828942F400520D
:1007C000828104E082894DF6FF731A40828170476E
:1007D00002460020B1F5007F00D100BF13880B4016
:1007E0000BB1012000E00020704700002DE9F04728
:1007F00086B005460E460024A24600BFA14600274B
:10080000B08900B100BF2F462C8A4CF6FF7004401F
:10081000F08804432C82AC894EF6F3100440B08873
:1008200031890843718908430443AC81AC8A4FF68F
:10083000FF400440B0890443AC8201A8FFF764FE86
:100840001F48874202D1DDF810A001E0DDF80CA0BE
:10085000A88900F4004040B10AEBCA0000EB0A107E
:1008600031684900B0FBF1F807E00AEBCA0000EB81
:100870000A1031688900B0FBF1F86420B8FBF0F091
:1008800004012009642101FB1089A88900F40040BB
:1008900040B1322000EBC900B0FBF1F000F00700DE
:1008A000044308E0322000EB09106421B0FBF1F0B2
:1008B00000F00F0004432C8106B0BDE8F087000073
:1008C00000380140C1F308028280704700BFFEE794
:1008D0000FB4054B10B503A9044A029800F018F8AC
:1008E00010BC5DF814FB0000650A0008140000202D
:1008F00002E008C8121F08C1002AFAD170477047E9
:10090000002001E001C1121F002AFBD17047000046
:100910002DE9FF4F89B09B460446002506E02528B7
:100920000BD05A460B999047641C6D1C2078002808
:10093000F5D10DB02846BDE8F08F0027B84601225A
:10094000474900E0074314F8013F203B02FA03F057
:100950000842F7D120782E2819D114F8010F47F05A
:1009600004072A280ED06FF02F022078A0F1300162
:1009700009290CD808EB880102EB410100EB0108C2
:10098000641CF2E70A98641C50F8048B0A902078E3
:100990000028CED0642808D0692806D075281ED03B
:1009A0005A460B9990476D1C58E00A994FF00A0976
:1009B00001C90A91002802DA40422D2102E03905DE
:1009C00004D52B218DF82010012103E0F90704D074
:1009D0002021F7E78A4608AE0DE00021FAE70A99E0
:1009E0004FF00A0901C90A91F7E74946FFF79CFB56
:1009F000303106F8011D0028F7D1ADEB060000F1FB
:100A00002009780701D44FF00108C84502DDA8EBA2
:100A1000090000E000208046002706E008A85A46AA
:100A2000C05D0B9990476D1C7F1C5745F6DB04E0B9
:100A300030205A460B9990476D1CB8F10001A8F17F
:100A40000108F5DC05E016F8010B5A460B999047B2
:100A50006D1CB9F10001A9F10109F4DC641C65E722
:100A60000928010070B504460D46E0B2FFF7EEFD1F
:100A7000204670BDFFF7AEFCFFF7B2FD40F29A21B1
:100A800002A0FFF725FF00BFFEE700004E756D20B6
:100A90003D2025640D0A0000B80A0008000000206F
:100AA00018000000F0080008D00A00081800002014
:100AB0000004000000090008000000000102030417
:100AC00001020304060708090204060800000000EA
:04000005080000ED02
:00000001FF
