:020000040800F2
:100000007006002089010008690400087B030008CD
:100010007F030008430200081D09000800000000DB
:10002000000000000000000000000000CD070008F4
:100030004702000800000000A9070008B9080008EE
:10004000A3010008A3010008A3010008A301000800
:10005000A3010008A3010008A3010008A3010008F0
:10006000A3010008A3010008A3010008A3010008E0
:10007000A3010008A3010008A3010008A3010008D0
:10008000A3010008A3010008A3010008A3010008C0
:10009000A3010008A3010008A3010008A3010008B0
:1000A000A3010008A3010008A3010008A3010008A0
:1000B000A3010008A3010008A3010008A301000890
:1000C000A3010008A3010008A3010008A301000880
:1000D000A3010008A3010008A3010008A301000870
:1000E000A3010008A3010008A301000800F002F822
:1000F00000F03AF80AA090E8000C82448344AAF188
:100100000107DA4501D100F02FF8AFF2090EBAE885
:100110000F0013F0010F18BFFB1A43F0010318473B
:100120003810000058100000103A24BF78C878C179
:10013000FAD8520724BF30C830C144BF04680C60ED
:10014000704700000023002400250026103A28BF35
:1001500078C1FBD8520728BF30C148BF0B60704739
:100160001FB51FBD10B510BD00F031F81146FFF7E7
:10017000F7FF00F07BFC00F04FF803B4FFF7F2FF4D
:1001800003BC00F057F800000948804709480047C1
:10019000FEE7FEE7FEE7FEE7FEE7FEE7FEE7FEE737
:1001A000FEE7FEE704480549054A064B7047000094
:1001B000BD080008ED000008700000207006002057
:1001C000700200207002002070477047704775462B
:1001D00000F02CF8AE4605006946534620F00700B3
:1001E000854618B020B5FFF7DDFFBDE820404FF091
:1001F00000064FF000074FF000084FF0000B21F011
:100200000701AC46ACE8C009ACE8C009ACE8C009DD
:10021000ACE8C0098D46704710B50446AFF30080C6
:100220002046BDE81040FFF7A8BF00000048704717
:100230000C00002001491820ABBEFEE7260002009A
:10024000704700BFFEE770472DE9F04102460025E8
:100250000026002000230024002791F803C00CF0A2
:100260000F0591F803C00CF0100CBCF1000F03D087
:1002700091F802C04CEA050591F800C0BCF1000FEE
:1002800031D0146800202BE04FF0010C0CFA00F381
:10029000B1F800C00CEA03069E4220D183004FF063
:1002A0000F0C0CFA03F7BC4305FA03FC4CEA0404F8
:1002B00091F803C0BCF1280F06D14FF0010C0CFAE5
:1002C00000FCC2F814C00AE091F803C0BCF1480F6A
:1002D00005D14FF0010C0CFA00FCC2F810C0401C14
:1002E0000828D1D31460B1F800C0BCF1FF0F34DD91
:1002F000546800202EE000F1080C4FF0010808FAC5
:100300000CF3B1F800C00CEA03069E4221D1830031
:100310004FF00F0C0CFA03F7BC4305FA03FC4CEA50
:10032000040491F803C0BCF1280F05D100F1080CBA
:1003300008FA0CF8C2F8148091F803C0BCF1480F19
:1003400007D100F1080C4FF0010808FA0CF8C2F8C8
:100350001080401C0828CED35460BDE8F0810246CE
:10036000002093680B400BB1012000E00020704793
:100370000AB1016100E04161704700BFFEE700BFC4
:10038000FEE7000008B50121042000F00FFAB020BC
:10039000ADF8000010208DF8030003208DF8020056
:1003A00069460B48FFF750FF4020ADF80000482099
:1003B0008DF8030003208DF8020069460448FFF71A
:1003C00043FF012000F046F8002000F039F808BD96
:1003D0000008014010B540210148FFF7C0FF10BDE3
:1003E0000008014010B5002000F034F810BD10B531
:1003F000012000F02FF810BD70B50446002510E074
:1004000004F0800000F012F86006040E012000F0F5
:1004100017F8FFF7DFFF0443002000F011F8681C15
:10042000C5B2082DECDB204670BD000010B50446B7
:10043000224680210148FFF79BFF10BD00080140C4
:1004400010B50446224620210148FFF791FF10BD58
:100450000008014010B50446224610210148FFF76C
:1004600087FF10BD00080140704770B500240EE002
:100470000021204600F0EFF8002504E0002000F005
:1004800083F9681CC5B2802DF8DB601CC4B2082C4F
:10049000EEDB70BD08B50121082000F087F91420BB
:1004A0008DF8030003208DF802004FF48070ADF842
:1004B000000069460A48FFF7C7FE4FF40070ADF828
:1004C000000069460648FFF7BFFE012211020448FA
:1004D000FFF74EFF012251020148FFF749FF08BD17
:1004E000000C014070B50546002415E08020204135
:1004F00000EA05024FF400710E48FFF739FF0122B0
:1005000011020C48FFF734FF00224FF480710948B4
:10051000FFF72EFF601CC4B2082CE7DB012211029A
:100520000448FFF725FF00224FF480710148FFF7D0
:100530001FFF70BD000C014010B5012251020A4896
:10054000FFF716FF012211020748FFF711FF0022F3
:100550004FF400710448FFF70BFF00224FF4807145
:100560000148FFF705FF10BD000C014010B5002247
:100570004FF400710648FFF7FBFE01221102044808
:10058000FFF7F6FE012251020148FFF7F1FE10BD10
:10059000000C014070B5002406E0002500E06D1C51
:1005A000B5F57A7FFBD3641CB4F57A7FF5D3FFF7FA
:1005B00071FFAE2000F0D8F8D52000F0D5F88020EB
:1005C00000F0D2F8A82000F0CFF83F2000F0CCF8DF
:1005D000D32000F0C9F8002000F0C6F8402000F059
:1005E000C3F8A12000F0C0F8C82000F0BDF8DA2060
:1005F00000F0BAF8122000F0B7F8812000F0B4F84B
:10060000CF2000F0B1F8D92000F0AEF8F12000F0D2
:10061000ABF8DB2000F0A8F8302000F0A5F8A4200B
:1006200000F0A2F8A62000F09FF88D2000F09CF8C2
:10063000142000F099F8AF2000F096F8FFF715FFAE
:1006400070BD10B50246012000E050430B1EA1F121
:100650000101FAD110BD70B505460C4645F0B00059
:1006600000F082F8102141EA141000F07DF804F047
:100670000F0000F079F870BD2DE9F04105460E46F7
:100680001746721ED206110E6A1E5206100EFFF792
:10069000E2FF002409E0A7F12001134A02EB011157
:1006A000085D00F071F8601CC4B2082CF3DB721E08
:1006B000D206110E6A1E012303EB4202D0B2FFF7ED
:1006C000CAFF00240BE0A7F12001074A02EB011248
:1006D00004F10801505C00F057F8601CC4B2082C0B
:1006E000F1DBBDE8F0810000680B00082DE9F04760
:1006F00081460E4690461F4600241DE0381B411ED1
:100700001020FFF79EFFB8FBF0F000F00F050A2D58
:1007100008DA05F13000C2B23019C1B24846FFF71D
:10072000ABFF07E005F13700C2B23019C1B248464D
:10073000FFF7A2FF601CC4B2BC42DFDBBDE8F0875C
:100740002DE9F04107460E461546002407E02A5DD4
:100750003019C1B23846FFF78FFF601CC4B2285D64
:100760000028F4D1BDE8F08110B50446FFF7E4FE9F
:100770007820FFF7B7FE0020FFF7B4FE2046FFF712
:10078000B1FEFFF7F3FE10BD10B50446FFF7D4FE2F
:100790007820FFF7A7FE4020FFF7A4FE2046FFF7D2
:1007A000A1FEFFF7E3FE10BD7047000029B1064A25
:1007B00092690243044B9A6104E0034A92698243BE
:1007C000014B9A617047000000100240704710B55D
:1007D00000F002F810BD00000CB500200190009060
:1007E0003348006840F480303149086000BF304829
:1007F000006800F4003000900198401C01900098BF
:1008000018B90198B0F5A06FF1D12948006800F43B
:10081000003010B10120009001E00020009000980D
:10082000012843D12348006840F0100021490860A6
:100830000846006820F0030008600846006840F0A1
:10084000020008601A484068194948600846406834
:1008500048600846406840F4806048600846406848
:1008600020F47C1048600846406840F4E810486076
:100870000846006840F08070086000BF0C480068BF
:1008800000F000700028F9D00948406820F003000B
:10089000074948600846406840F00200486000BFD1
:1008A0000348406800F00C000828F9D10CBD000096
:1008B00000100240002002407047000010B51348AD
:1008C000006840F00100114908600846406810497E
:1008D00008400E494860084600680E4908400B4928
:1008E00008600846006820F48020086008464068D8
:1008F00020F4FE0048604FF41F008860FFF767FF98
:100900004FF000600449086010BD00000010024074
:100910000000FFF8FFFFF6FE08ED00E000BFFEE775
:1009200010B5FFF72FFD10BD2DE9F04104460E462E
:10093000174600F091F8FFF755FD0220FFF75CFD28
:10094000C4F30740FFF758FDC4F30720FFF754FD39
:10095000E0B2FFF751FD002504E0705DFFF74CFDAC
:10096000681C85B2BD42F8DBFFF741FD00F05CF882
:10097000BDE8F0812DE9F04104460E461746FFF729
:1009800031FD0320FFF738FDC4F30740FFF734FDC6
:10099000C4F30720FFF730FDE0B2FFF72DFD00257F
:1009A00004E0FF20FFF728FD70556D1CBD42F8D311
:1009B000FFF71DFDBDE8F08170B505460C46FFF759
:1009C00011FD9F20FFF718FDFF20FFF715FD287090
:1009D000FF20FFF711FD208020884FF6FF7101EA0C
:1009E00000202080FF20FFF707FD2188084320809A
:1009F000FFF7FDFC70BD10B5044600F02DF8FFF7C1
:100A0000F1FC2020FFF7F8FCC4F30740FFF7F4FCEB
:100A1000C4F30720FFF7F0FCE0B2FFF7EDFCFFF7AF
:100A2000E6FC00F001F810BD10B50A4CFFF7DAFC47
:100A30000520FFF7E1FC02E0641E04B906E0FF2098
:100A4000FFF7DAFC00F001000028F5D100BFFFF746
:100A5000CEFC10BDA086010010B5FFF7C3FC062038
:100A6000FFF7CAFCFFF7C3FC10BD0000FFF792FDC3
:100A7000FFF756FF33A201210846FFF761FE34A2BB
:100A800001210220FFF75CFE32A201210320FFF7C3
:100A900057FE31493148FFF78FFF02232F48027874
:100AA00005210120FFF722FE04232B4802880C2198
:100AB0000120FFF71BFE0020FFF79DFF04222849BD
:100AC0000020FFF731FF042226490020FFF752FFE4
:100AD00023480278022303211846FFF707FE204827
:100AE0004278022306211846FFF700FE1C48827850
:100AF000022309211846FFF7F9FD1948C27802239D
:100B00000C211846FFF7F2FD164802780223032154
:100B10000846FFF7EBFD1348427802230621032025
:100B2000FFF7E4FD0F488278022309210320FFF735
:100B3000DDFD0C48C27802230C210320FFF7D6FD0F
:100B400000BFFEE74D49443A2020204449443A0082
:100B5000573A0000523A0000020000200100002035
:100B60000400002008000020000000000000000039
:100B70000000000000000000000000F8000000007D
:100B8000000000333000000000100C06100C0600BE
:100B9000000000000000000040C07840C078400025
:100BA000043F04043F040400007088FC0830000087
:100BB000001820FF211E0000F008F000E0180000DF
:100BC00000211C031E211E0000F008887000000098
:100BD0001E2123241927211010160E0000000000EA
:100BE0000000000000000000000000E01804020007
:100BF000000000071820400000020418E000000078
:100C00000040201807000000404080F08040400075
:100C10000202010F01020200000000F000000000CB
:100C20000101011F0101010000000000000000009F
:100C300080B0700000000000000000000000000014
:100C4000000101010101010100000000000000009D
:100C50000030300000000000000000008060180438
:100C6000006018060100000000E010080810E00015
:100C7000000F102020100F00001010F800000000DE
:100C80000020203F20200000007008080888700025
:100C900000302824222130000030088888483000A5
:100CA0000018202020110E000000C02010F80000C5
:100CB00000070424243F240000F80888880808005E
:100CC0000019212020110E0000E010888818000073
:100CD000000F112020110E0000380808C838080045
:100CE0000000003F000000000070880808887000C5
:100CF000001C222121221C0000E010080810E00046
:100D00000000312222110F00000000C0C0000000CE
:100D100000000030300000000000008000000000F3
:100D200000008060000000000000804020100800EB
:100D300000010204081020004040404040404000B4
:100D4000040404040404040000081020408000008F
:100D50000020100804020100007048080808F00094
:100D60000000003036010000C030C828E810E00064
:100D70000718272423140B000000C038E0000000EF
:100D8000203C23020227382008F888888870000059
:100D9000203F202020110E00C0300808080838002D
:100DA000071820202010080008F808080810E000A4
:100DB000203F202020100F0008F88888E808100045
:100DC000203F20202320180008F88888E808100019
:100DD000203F200003000000C03008080838000051
:100DE00007182020221E020008F808000008F80852
:100DF000203F210101213F20000808F808080000D9
:100E00000020203F2020000000000808F80808000B
:100E1000C08080807F00000008F888C02818080083
:100E2000203F20012638200008F8080000000000BC
:100E3000203F20202020300008F8F800F8F80800B3
:100E4000203F003F003F200008F830C00008F808AD
:100E5000203F200007183F00E01008080810E000BD
:100E60000F10202020100F0008F808080808F000D4
:100E7000203F210101010000E01008080810E000F7
:100E80000F18242438504F0008F88888888870008C
:100E9000203F2000030C302000708808080838002C
:100EA0000038202121221C00180808F80808180022
:100EB0000000203F2000000008F808000008F808A3
:100EC000001F202020201F000878880000C8380854
:100ED000000007380E010000F80800F80008F800CC
:100EE000033C0700073C0300081868808068180866
:100EF00020302C03032C30200838C800C8380800E4
:100F00000000203F2000000010080808C838080032
:100F10002038262120201800000000FE02020200D6
:100F20000000007F40404000000C30C00000000086
:100F3000000000010638C00000020202FE000000AE
:100F4000004040407F000000000004020202040054
:100F50000000000000000000000000000000000091
:100F60008080808080808080000202040000000079
:100F70000000000000000000000080808080000071
:100F80000019242222223F2008F80080800000005F
:100F9000003F112020110E00000000808080000022
:100FA000000E112020201100000000808088F80031
:100FB000000E112020103F20000080808080000063
:100FC000001F222222221300008080F088888818C7
:100FD0000020203F202000000000808080808000D2
:100FE000006B94949493600008F800808080000067
:100FF000203F210000203F20008098980000000042
:101000000020203F20200000000000809898000071
:1010100000C08080807F000008F800008080800091
:10102000203F24022D302000000808F800000000B6
:101030000020203F20200000808080808080800071
:10104000203F20003F20003F808000808080000003
:10105000203F210000203F20000080808080000091
:10106000001F202020201F008080008080000000C2
:1010700080FFA12020110E000000008080808000F1
:10108000000E112020A0FF808080800080808000E2
:1010900020203F212000010000008080808080000F
:1010A0000033242424241900008080E08080000084
:1010B0000000001F202000008080000000808000D1
:1010C000001F202020103F20808080000080808032
:1010D00000010E30080601008080008000808080C2
:1010E0000F300C030C300F000080800080808000E7
:1010F0000020312E0E312000808080000080808012
:1011000080818E70180601000080808080808000C1
:101110000021302C2221300000000000807C0202DF
:1011200000000000003F404000000000FF00000001
:1011300000000000FF0000000002027C80000000B0
:101140000040403F000000000006010102020404CC
:1011500000000000000000007811000800000020DE
:101160000C00000028010008841100080C00002079
:1011700064060000440100080000000055B2C3D41A
:04118000000000006B
:04000005080000ED02
:00000001FF
